{
  "contractName": "Auction",
  "abi": [
    {
      "constant": true,
      "inputs": [],
      "name": "seller",
      "outputs": [
        {
          "name": "",
          "type": "address"
        }
      ],
      "payable": false,
      "stateMutability": "view",
      "type": "function",
      "signature": "0x08551a53"
    },
    {
      "constant": true,
      "inputs": [],
      "name": "manager",
      "outputs": [
        {
          "name": "",
          "type": "address"
        }
      ],
      "payable": false,
      "stateMutability": "view",
      "type": "function",
      "signature": "0x481c6a75"
    },
    {
      "constant": true,
      "inputs": [],
      "name": "latestBid",
      "outputs": [
        {
          "name": "",
          "type": "uint256"
        }
      ],
      "payable": false,
      "stateMutability": "view",
      "type": "function",
      "signature": "0x5dd672ec"
    },
    {
      "constant": true,
      "inputs": [],
      "name": "latestBidder",
      "outputs": [
        {
          "name": "",
          "type": "address"
        }
      ],
      "payable": false,
      "stateMutability": "view",
      "type": "function",
      "signature": "0x67a884e5"
    },
    {
      "inputs": [],
      "payable": false,
      "stateMutability": "nonpayable",
      "type": "constructor",
      "signature": "constructor"
    },
    {
      "constant": false,
      "inputs": [
        {
          "name": "bid",
          "type": "uint256"
        }
      ],
      "name": "auction",
      "outputs": [],
      "payable": false,
      "stateMutability": "nonpayable",
      "type": "function",
      "signature": "0x1200617f"
    },
    {
      "constant": false,
      "inputs": [],
      "name": "bid",
      "outputs": [],
      "payable": true,
      "stateMutability": "payable",
      "type": "function",
      "signature": "0x1998aeef"
    },
    {
      "constant": false,
      "inputs": [],
      "name": "finishAuction",
      "outputs": [],
      "payable": false,
      "stateMutability": "nonpayable",
      "type": "function",
      "signature": "0x430ca46f"
    }
  ],
  "bytecode": "0x608060405234801561001057600080fd5b50336000806101000a81548173ffffffffffffffffffffffffffffffffffffffff021916908373ffffffffffffffffffffffffffffffffffffffff160217905550610507806100606000396000f3fe608060405260043610610083576000357c0100000000000000000000000000000000000000000000000000000000900463ffffffff16806308551a53146100885780631200617f146100df5780631998aeef1461011a578063430ca46f14610124578063481c6a751461013b5780635dd672ec1461019257806367a884e5146101bd575b600080fd5b34801561009457600080fd5b5061009d610214565b604051808273ffffffffffffffffffffffffffffffffffffffff1673ffffffffffffffffffffffffffffffffffffffff16815260200191505060405180910390f35b3480156100eb57600080fd5b506101186004803603602081101561010257600080fd5b810190808035906020019092919050505061023a565b005b61012261028f565b005b34801561013057600080fd5b506101396103ad565b005b34801561014757600080fd5b5061015061048a565b604051808273ffffffffffffffffffffffffffffffffffffffff1673ffffffffffffffffffffffffffffffffffffffff16815260200191505060405180910390f35b34801561019e57600080fd5b506101a76104af565b6040518082815260200191505060405180910390f35b3480156101c957600080fd5b506101d26104b5565b604051808273ffffffffffffffffffffffffffffffffffffffff1673ffffffffffffffffffffffffffffffffffffffff16815260200191505060405180910390f35b600160009054906101000a900473ffffffffffffffffffffffffffffffffffffffff1681565b670de0b6b3a7640000810260028190555033600160006101000a81548173ffffffffffffffffffffffffffffffffffffffff021916908373ffffffffffffffffffffffffffffffffffffffff16021790555050565b6002543411151561029f57600080fd5b600073ffffffffffffffffffffffffffffffffffffffff16600360009054906101000a900473ffffffffffffffffffffffffffffffffffffffff1673ffffffffffffffffffffffffffffffffffffffff1614151561036357600360009054906101000a900473ffffffffffffffffffffffffffffffffffffffff1673ffffffffffffffffffffffffffffffffffffffff166108fc6002549081150290604051600060405180830381858888f19350505050158015610361573d6000803e3d6000fd5b505b33600360006101000a81548173ffffffffffffffffffffffffffffffffffffffff021916908373ffffffffffffffffffffffffffffffffffffffff16021790555034600281905550565b6000809054906101000a900473ffffffffffffffffffffffffffffffffffffffff1673ffffffffffffffffffffffffffffffffffffffff163373ffffffffffffffffffffffffffffffffffffffff1614151561040857600080fd5b600160009054906101000a900473ffffffffffffffffffffffffffffffffffffffff1673ffffffffffffffffffffffffffffffffffffffff166108fc3073ffffffffffffffffffffffffffffffffffffffff16319081150290604051600060405180830381858888f19350505050158015610487573d6000803e3d6000fd5b50565b6000809054906101000a900473ffffffffffffffffffffffffffffffffffffffff1681565b60025481565b600360009054906101000a900473ffffffffffffffffffffffffffffffffffffffff168156fea165627a7a72305820ea745f4a27e33a486ab59a384db8939ef83a9c02bef0b8053b2d83b180d61e470029",
  "source": "pragma solidity ^0.5.0;\r\ncontract Auction {\r\n  address public manager;\r\n  address payable public seller;\r\n  uint public latestBid;\r\n  address payable public latestBidder;\r\n \r\n  constructor() public {\r\n    manager = msg.sender;\r\n  }\r\n \r\n  function auction(uint bid) public {\r\n    latestBid = bid * 1 ether; //1000000000000000000;\r\n    seller = msg.sender;\r\n  }\r\n \r\n  function bid() public payable {\r\n    require(msg.value > latestBid);\r\n \r\n    if (latestBidder != address(0)) {\r\n      latestBidder.transfer(latestBid);\r\n    }\r\n    latestBidder = msg.sender;\r\n    latestBid = msg.value;\r\n  }\r\n \r\n  function finishAuction() restricted public {\r\n    seller.transfer(address(this).balance);\r\n  }\r\n \r\n  modifier restricted() {\r\n    require(msg.sender == manager);\r\n    _;\r\n  }\r\n}\r\n\r\n/*\r\nAuction.at(\"0x1F8402b7137c40447fcF4bb51F8c92d87d5fF4Ec\").manager.call();\r\n \r\n HelloWorld.deployed().balance.call().then(console.log) \r\n Auction.at(\"0x1F8402b7137c40447fcF4bb51F8c92d87d5fF4Ec\").manager.call();\r\n\r\n Auction.deployed().then(function(instance) {return instance.at(\"0x1F8402b7137c40447fcF4bb51F8c92d87d5fF4Ec\").manager.call();})\r\n .then(function(balance) {\r\n    console.log(balance);\r\n});\r\n*/",
  "sourcePath": "C:/Users/jaysh/Desktop/Auction/contracts/Auction.sol",
  "compiler": {
    "name": "solc",
    "version": "0.5.0+commit.1d4f565a.Emscripten.clang"
  },
  "schemaVersion": "3.0.1",
  "updatedAt": "2019-01-05T06:11:32.392Z",
  "devdoc": {
    "methods": {}
  },
  "userdoc": {
    "methods": {}
  }
}